:100720003C4281C18181423C3C42C1818181423C49
:100730003C6281818181423C3C5281818181423C89
:100740003C4A81818181423C3C4681818181423C9D
:100750003C4283818181423C3C4281838181423C95
:100760003C4281818381423C3C4281818183423C85
:100770003C4281818181463C3C42818181814A3C6D
:100780003C4281818181523C3C4281818181623C39
:100790003C42818181C1423C3C428181C181423CD9
:100A55000808000000000000000008100000000069
:040A6500000000008D
:10081300C3EF941EEE940050047D018036C3EF9421
:1008230064EE940050047D028029C3EF942CEE946F
:100833000150047D05801CC3EF9458EE94025004CC
:100843007D08800FC3EF94B0EE940450047D0C80B8
:05085300027D0FAF055E
:01085800227D
:100931007F147E00120A6A12089CAF10EFFE7C0041
:10094100E42511FFEC3EFEAD07FC1202A67B9A7A6C
:0B095100997999783F1202041202DF2E
:01095C002278
:100A3E00120A7F7F017E00120A6A120A267F017E49
:070A4E0000120A6A02095DB3
:10057C00E4F523F524F525F526F527F528F529F5D9
:10058C002AF52B74FFF52CF52DE4F52EF52FF5300F
:10059C00120A3E120859E509F521E508F522E50B8A
:1005AC00FEE50AFFD3E52294FFE521947F40080580
:1005BC0022E52270020521D3EF94FFEE947F4005D3
:1005CC000FBF00010EAD07AC06E41202A6C004C0BA
:1005DC0005C006C007AC21AD22E41202A68F388EEE
:1005EC00378D368C35D007D006D005D0041207A035
:1005FC007BA37A4C796578421200FBE4FBFA7934E0
:10060C00784312000A1202DF8E288F29AC28AD29FC
:10061C00EC1202A6E4FBFA79B4784112020412023D
:10062C00DF8E288F291209318E238F24120813751F
:10063C0023008F24852430AD307F0A120A0EE52D5D
:10064C0065297004E52C65286034752701E529754A
:10065C00F008A4241FF582E43407F583E5822527EE
:10066C00F582E43583F583E493FDAF27120A0E057A
:10067C0027E527C3940940D585282C85292D7FC8CB
:08068C007E00120A6A02059FBC
:0E0AB800E4FFFE0FBF00010EEF64704E70F5FC
:010AC600220D
:0209D300AD076E
:1009D5007C08C2A2120AB8ED30E704D2A08002C298
:0F09E500A0120AB8ED25E0FDD2A2120AB8DCE399
:0109F40022E0
:100A0E00AB05AD07C2A1120AB8AF051209D3AF03E9
:080A1E001209D3D2A1020AB8AB
:10095D00E4FD7F0C120A0EE4FD7F09120A0E7D07DD
:10096D007F0B120A0E7D017F0A120A0E7D017F0C8C
:0A097D00120A0EE4FD7F0F020A0EBD
:100A6A00EF1FAC0670011E4C600A7D027CC7DCFEDB
:040A7A00DDFC80EC33
:010A7E002255
:040B26007F02DFFE6D
:010B2A0022A8
:0F0AC700D291D290120B26C291120B26C290220E
:0C0B0E00C291D290120B26D291020B264D
:0E0AE500A2009291D290120B26C290020B2614
:0D0B0100D290120B26A291C290120B262258
:0209B0008F3383
:1009B200E4F534E53325E0F5339291D290120B261B
:1009C200C290120B260534E534C3940840E5020BAD
:0109D2000123
:10098700E4F533D291F532E53325E0F533D2901211
:100997000B26A291E4334233C290120B260532E5AF
:0809A70032C3940840E1AF33B4
:0109AF002225
:1009F5008F318D32120AC77F581209B0AF311209F3
:090A0500B0AF321209B0020B0E71
:10085900120AC77F581209B0E4FF1209B0120AC779
:100869007F591209B0E4F53112098774082531F866
:10087900A607E531B40504D2008002C200120AE5D8
:100889000531E531C3940640DF120B0E7F057E006A
:03089900020A6AE6
:100A7F007D067F291209F57D087F0B1209F57DC3CD
:050A8F007F0A0209F5D9
:0F0AD600D294D293120B26C294120B26C29322F3
:0C0B1A00C294D293120B26D294020B2638
:0E0AF300A2009294D293120B26C293020B26FD
:100A9400D294120B26D293120B26A294C293120B59
:020AA400262208
:0208D5008F3260
:1008D700E4F533E53230E704D2948002C294120B78
:1008E70026D293120B26C293120B26E53225E0F58A
:0D08F700320533E533C3940840D9020A945A
:10090400E4F533D294120B26E4F532E53325E0F511
:1009140033D293120B26309403433301C293120B48
:0C092400260532E532C3940840E1AF33F1
:0109300022A4
:100AA6008F31120AD67F461208D5AF311208D50209
:020AB6000B1A19
:10089C007F787E00120A6A120AD67F471208D5E4C6
:1008AC00F53112090474102531F8A607E531B401AD
:1008BC0004D2008002C200120AF30531E531C39460
:0908CC000240DF120B1A020B2698
:100A26007F01120AA67F0A7E00120A6A7F10120A46
:080A3600A67F787E00020A6A27
:1000030002034BE86480F8E933E83360110460F0DD
:10001300ED33EC337009E8FCE9FDEAFEEBFF220463
:1000230060DED3EB9FEA9EE99DE8C2E78CF0C2F75E
:1000330095F0400CE8CCF8E9CDF9EACEFAEBCFFB2A
:1000430012031685D0F05804700320D5B3E804706A
:10005300075002B2D502035592D5EC0460F7E4CC05
:10006300C0E0C398F8603B94186008400DD0E0FBF3
:1000730002032DE4FBFAC9FC8028E830E406E4C956
:10008300FBE4CAFCE830E305E4C9CACBFCE8540747
:100093006010F8C3E913F9EA13FAEB13FBEC13FC52
:1000A300D8F130F52FC3E49CFCEF9BFFEE9AFEEDF5
:1000B30099FDD0E0FBEF4E4D4C701222DB0302039F
:1000C30052EC2CFCEF33FFEE33FEED33FDED30E766
:1000D300EB02032DEF2BFFEE3AFEED39FDD0E0FBF3
:1000E30050130BBB0003020355ED13FDEE13FEEF9C
:0800F30013FFEC13FC02032DC6
:1000FB00EC4D6011E8497017ED33EC3304600DE4FF
:10010B00FCFFFEFD22E933E8330470F802034B12C7
:10011B00031658046009E4CC2481500628500902C8
:10012B000355284003020352C0E0EB4A7044B980E8
:10013B0006D0E0FB020341EF4E701CBD8008EBFFC5
:10014B00EAFEE9FD80EBE98DF0A4FEE5F00201E4A7
:10015B00E9CDF9EAFEEBFFEF89F0A4FCE5F0CE89DF
:10016B00F0A42EFFE435F0CD89F0A42DFEE435F09C
:10017B008067EF4E7005BD80D780C3EF8BF0A4ACCA
:10018B00F0EE8BF0A42CFCE435F0F8EF8AF0A42C05
:10019B00E5F038FCE433CB8DF0A42CFCE5F03BF818
:1001AB00EE8AF0A42CFCE5F038F8E433CF89F0A408
:1001BB002CFCE5F038CF3400CE89F0A42FFFE5F00E
:1001CB003EFEE433C98DF0A42EFEE5F039CD8AF066
:1001DB00A42FFFE5F03EFEE43DFD33D0E0FB5007DE
:1001EB000BBB000F020355EC2CFCEF33FFEE33FE81
:0601FB00ED33FD02032DAF
:10020100020355EC5D046005E85904700302034BD9
:10021100120316580460F6EC4860F2EC7004FDFE1F
:10022100FF22C860DB2481C85009C39860025006D0
:100231000203529850CAF582E9294B4A7005AB82F4
:1002410002034175F0007C1A7880C3EF9BEE9AEDB2
:1002510099400DC3EF9BFFEE9AFEED99FDE842F048
:10026100DC23ACF0D0E0FFD0E0FED0E0FDAB82209B
:10027100E7101BEB60BAEC2CFCEF33FFEE33FEED25
:1002810033FD02032DE803F830E705C0F075F000F7
:10029100EF2FFFEE33FEED33FD40B830E7C280AA09
:1002A10075F020800E75F010800575F0087D007ED8
:1002B100007F003392D530D503120426EC33401071
:1002C100EF33FFEE33FEED33FDEC33FCD5F0ED22E1
:0E02D100E5F0247EA2D513CC92E7CDCEFF221D
:1002DF00EDD2E7CD33EC3392D524814006E4FFFE17
:1002EF00FDFC22FCE4CFCECDCC24E0501174FF8076
:1002FF00EDC3CC13CCCD13CDCE13CECF13CF047013
:07030F00F030D5DE020426E8
:1007A0008F348E338D328C31AB38AA37A936A835C9
:1007B0001202041204748F348E338D328C31E5357D
:1007C00030E747ECC0E0EDC0E0EEC0E0EFC0E0E4B1
:1007D000FFFEFDFCAB34AA33A932A8311203607BC3
:1007E000DB600250087A0F7949784080067A0F79E9
:1007F0004978C0D0E0FFD0E0FED0E0FDD0E0FC12B0
:10080000000A8F348E338D328C31AF34AE33AD323B
:03081000AC3122E6
:10031600E9D2E7C933E833F892D5EDD2E7CD33EC2D
:0703260033FC5002B2D522A6
:10032D00EC30E7100FBF000C0EBE00080DBD000431
:10033D000BEB6014A2D5EB13FCED92E7FD2274FFDD
:10034D00FCFDFEFF22E480F8A2D574FF13FC7D8036
:03035D00E480EF4A
:1003600074F8CC6480CCC86480C8F58204604FC344
:10037000EB9FF5F0EA9E42F0E99D42F0E89C45F0E3
:10038000603C501DE5825FFFE582D313CB5BCBF46D
:100390002B5582FB50280ABA002409B90020088096
:1003A0001DE5825BFBE582D313CF5FCFF4C3132F30
:1003B0005582FF50090EBE00050DBD00010CC3EBB8
:1003C0009FF5F0EA9E42F0E99D42F0E89C45F0601E
:0903D00007CC4820E701B3EC2240
:10045400BE1249253E4CCCCDBEAAAAAB3F800000BB
:100464003E7ADBB03EED63383F24BC7D3F490FDB71
:10047400ED33ECC2E7CC339200B4FF13ED547F604C
:100484000302034B7FDB7E0F7DC97C3F02056FC2F5
:1004940001C3947F401E7007EDD2E794904015EF9E
:1004A400FBEEFAEDF9ECF87F007E007D807C3F12D4
:1004B4000204D201ED33EC33248430E705E4C0E0D8
:1004C400806D04FAEDD2E754F0C333DAFD540734F7
:1004D400002323C0E0CCC0E0F8EDC0E0F9EEC0E0BA
:1004E400FAEFC0E0FBE41202ABEC24FEFC8C398D85
:1004F4003A8E3B8F3C1200FB7B007A007980783F78
:1005040012000AECC539B2E7FCEDC53AFDEEC53B75
:10051400FEEFC53CFFD0E0FBD0E0FAD0E0F9D0E03C
:10052400F812000AA839A93AAA3BAB3C1202048C7F
:10053400398D3A8E3B8F3C90045474031203D9A82E
:1005440039A93AAA3BAB3C1200FBD0E0600F24600F
:10055400F582E43404F58312044412000A30010BDA
:100564007BDB7A0F79C978BF12000AED33EC336074
:0805740006ECA20092E7FC2254
:1003D900C0E0EFFBEEFAEDF9ECF81200FBD0E0F526
:1003E900F0EFFBEEFAEDF9ECF8120434A3A3A3A3A2
:1003F900E8C0E0E9C0E0EAC0E0EBC0E0C0F012000C
:10040900FB120444A3A3A3A312000AD0F0D0E0FB7B
:0D041900D0E0FAD0E0F9D0E0F8D5F0D42220
:0300000002069461
:0C069400787FE4F6D8FD75813C0206DB9F
:0E042600C3E49FFFE49EFEE49DFDE49CFC22E7
:10043400E493FC740193FD740293FE740393FF220E
:10044400E493F8740193F9740293FA740393FB220E
:1006A00002057CE493A3F8E493A34003F68001F2EF
:1006B00008DFF48029E493A3F85407240CC8C3335B
:1006C000C4540F4420C8834004F456800146F6DF2A
:1006D000E4800B0102040810204080900A55E47E5B
:1006E000019360BCA3FF543F30E509541FFEE4931F
:1006F000A360010ECF54C025E060A840B8E493A3E6
:10070000FAE493A3F8E493A3C8C582C8CAC583CA10
:10071000F0A3C8C582C8CAC583CADFE9DEE780BEC8
:010A6900008C
:00000001FF
