:1004BE003C4242424242423C081828080808083E84
:0804CE003C4202040810207EEC
:0A05C600081600000000000000000D
:1002A700C3EF941EEE940050047D018036C3EF9493
:1002B70064EE940050047D028029C3EF942CEE94E1
:1002C7000150047D04801CC3EF9458EE940250043F
:1002D7007D07800FC3EF94B0EE940450047D0A802D
:0502E700027D0DAF05D2
:0102EC0022EF
:1003C5007F147E00120506120330AF16EFFE7C0087
:1003D500E42517FFEC3EFEAD07FC1200A87B9A7AD8
:0B03E500997999783F1200061200E1A0
:0103F00022EA
:0D0588001204EE7F017E001205060203F151
:10017000E4F508F509F50AF50BF50C74FFF50DF536
:100180000EE4F50FF510F511F51212058885080F2C
:100190008509101203C58E088F091202A78F11E579
:1001A000094508701A750C01E50C9004BD93FDAF6C
:1001B0000C1204D6050CE50CC3940940EB8052C325
:1001C000E5099510FFE508950FFE1205BAC3EF94F7
:1001D0000AEE64809480501A750C01E50C9004C5F9
:1001E00093FDAF0C1204D6050CE50CC3940940EB4B
:1001F000801F750C01E50C9004CD93FDAF0C12042B
:10020000D6050CE50CC3940940EB7FE87E0312058C
:0B021000067FC87E0012050602018D6B
:0E053F00E4FFFE0FBF00010EEF64704E70F57A
:01054D00228B
:02046700AD07DF
:100469007C08C2A212053FED30E704D2A08002C287
:0F047900A012053FED25E0FDD2A212053FDCE306
:010488002251
:1004D600AB05AD07C2A112053FAF05120467AF0316
:0804E600120467D2A102053FD8
:1003F100E4FD7F0C1204D6E4FD7F091204D67D07CB
:100401007F0B1204D67D017F0A1204D67D017F0C79
:0A0411001204D6E4FD7F0F0204D6AA
:10050600EF1FAC0670011E4C600A7D027CC7DCFE44
:04051600DDFC80EC9C
:01051A0022BE
:0405D1007F02DFFEC8
:0105D5002203
:0F054E00D291D2901205D1C2911205D1C2902242
:0C05A200C291D2901205D1D2910205D175
:0E056C00A2009291D2901205D1C2900205D148
:0D059500D2901205D1A291C2901205D12280
:020444008F1E09
:10044600E4F51FE51E25E0F51E9291D2901205D126
:10045600C2901205D1051FE51FC3940840E50205A9
:010466009500
:10041B00E4F522D291F521E52225E0F522D29012C6
:10042B0005D1A291E4334222C2901205D10521E5F8
:08043B0021C3940840E1AF2247
:010443002296
:1004A5008F238D2412054E7F1A120444AF231204A4
:0904B50044AF241204440205A224
:1002ED0012054E7F1A120444E4FF12044412054E07
:1002FD007F1B120444E4F52512041B74002525F818
:10030D00A607E525B40504D2008002C20012056CD3
:10031D000525E525C3940640DF1205A27F057E0065
:03032D00020506C0
:100489007D0D7F091204A57D017F0B1204A57D4016
:0C0499007F201204A57D017F210204A534
:0F055D00D294D2931205D1C2941205D1C2932227
:0C05AE00C294D2931205D1D2940205D160
:0E057A00A2019294D2931205D1C2930205D130
:10051B00D2941205D1D2931205D1A294C293120593
:02052B00D122DB
:020369008F14EF
:10036B00E4F515E51430E704D2948002C29412052B
:10037B00D1D2931205D1C2931205D1E51425E0F524
:0D038B00140515E515C3940840D902051BA3
:10039800E4F515D2941205D1E4F514E51525E0F538
:1003A80015D2931205D1309403431501C293120557
:0C03B800D10514E514C3940840E1AF1512
:0103C4002216
:10052D008F1312055D7F46120369AF131203690223
:02053D0005AE09
:100330007F787E0012050612055D7F47120369E48F
:10034000F51312039874162513F8A607E513B401E4
:1003500004D2018002C20112057A0513E513C39489
:090360000240DF1205AE0205D1D6
:1004EE007F0112052D7F0A7E001205067F10120570
:0804FE002D7F787E0002050647
:10000300020157EC5D046005E85904700302014DD9
:10001300120118580460F6EC4860F2EC7004FDFE1F
:10002300FF22C860DB2481C85009C39860025006D0
:100033000201549850CAF582E9294B4A7005AB82F4
:1000430002014375F0007C1A7880C3EF9BEE9AEDB2
:1000530099400DC3EF9BFFEE9AFEED99FDE842F048
:10006300DC23ACF0D0E0FFD0E0FED0E0FDAB82209B
:10007300E7101BEB60BAEC2CFCEF33FFEE33FEED25
:1000830033FD02012FE803F830E705C0F075F000F7
:10009300EF2FFFEE33FEED33FD40B830E7C280AA09
:1000A30075F020800E75F010800575F0087D007ED8
:1000B300007F003392D530D503120162EC33401038
:1000C300EF33FFEE33FEED33FDEC33FCD5F0ED22E1
:0E00D300E5F0247EA2D513CC92E7CDCEFF221D
:1000E100EDD2E7CD33EC3392D524814006E4FFFE17
:1000F100FDFC22FCE4CFCECDCC24E0501174FF8076
:10010100EDC3CC13CCCD13CDCE13CECF13CF047012
:07011100F030D5DE020162AF
:10011800E9D2E7C933E833F892D5EDD2E7CD33EC2D
:0701280033FC5002B2D522A6
:10012F00EC30E7100FBF000C0EBE00080DBD000431
:10013F000BEB6014A2D5EB13FCED92E7FD2274FFDD
:10014F00FCFDFEFF22E480F8A2D574FF13FC7D8036
:03015F00E480EF4A
:0300000002021BDE
:0C021B00787FE4F6D8FD758125020262B0
:0E016200C3E49FFFE49EFEE49DFDE49CFC22AE
:0C05BA00EE30E707C3E49FFFE49EFE2242
:10022700020170E493A3F8E493A34003F68001F27C
:1002370008DFF48029E493A3F85407240CC8C333D8
:10024700C4540F4420C8834004F456800146F6DFA7
:10025700E4800B01020408102040809005C6E47E6C
:10026700019360BCA3FF543F30E509541FFEE4939C
:10027700A360010ECF54C025E060A840B8E493A363
:10028700FAE493A3F8E493A3C8C582C8CAC583CA8E
:10029700F0A3C8C582C8CAC583CADFE9DEE780BE46
:0105D000002A
:00000001FF
