:100003001201DB750800750901AF097DFF1202F6C5
:100013000509E50970020508D39408E50894004032
:10002300E8E4F50AF50B1203AD050BE50B700205C9
:100033000AC394E8E50A6480948340EA750800756E
:100043000901AF09E4FD1202F60509E5097002058D
:1000530008D39408E508940040E8E4F50AF50B1288
:1000630003AD050BE50B7002050AC394F4E50A64BE
:1000730080948140EA750800750901AF097DFF127C
:1000830002F6E4F50AF50B1203AD050BE50B70025E
:10009300050AC394C8E50A6480948040EAAF09E482
:1000A300FD1202F60509E50970020508D39408E577
:1000B30008940040C6750800750901E50920E005AC
:1000C300FF7D558004AF097DAA1202F60509E509F3
:1000D30070020508D39408E508940040DEE4F50AAD
:1000E300F50BC3E50B94E8E50A64809483400302AF
:0F00F30000061203AD050BE50B70E7050A80E36D
:0E033100E4FFFE0FBF00010EEF64704E70F58A
:01033F00229B
:02025100AD07F7
:100253007C08C2A2120331ED30E704D2A08002C2AF
:0F026300A0120331ED25E0FDD2A2120331DCE33E
:010272002269
:1002F600AB05AD07C2A1120331AF05120251AF0320
:08030600120251D2A1020331E1
:1001DB00E4FD7F0C1202F6E4FD7F091202F67D07A7
:1001EB007F0B1202F67D017F0A1202F67D017F0C56
:0A01FB001202F6E4FD7F0F0202F687
:1002AA00EF4E60157D087C07ED1DAA0470011C4AFB
:0902BA0070F6EF1F70EA1E80E7E8
:0102C3002218
:0403AD007F01DFFEEF
:0103B1002229
:0F034000D291D2901203ADC2911203ADC290229E
:0C038900C291D2901203ADD2910203ADDC
:0E036D00A2009291D2901203ADC2900203AD95
:0E034F00D2901203ADA2919201C2901203ADA2
:01035D00227D
:02022E008F0C33
:10023000E4F50DE50C25E0F50C9291D2901203AD9A
:10024000C2901203AD050DE50DC3940840E502030D
:010250004F5E
:10020500E4F50FD291F50EE50F25E0F50FD290122A
:1002150003ADA291E433420FC2901203AD050EE582
:080225000EC3940840E1AF0F85
:01022D0022AE
:1002C4008F108D111203407F1A12022EAF101202EA
:0902D4002EAF1112022E02038963
:100102001203407F1A12022EE4FF12022E12034043
:100112007F1B12022EE4F51612020574002516F852
:10012200A607E516B40504D2008002C20012036DD0
:100132000516E516C3940640DF1203897F057E008B
:030142000202AA0C
:100273007D0D7F091202C47D017F0B1202C47D40F4
:0C0283007F201202C47D017F210202C412
:1002DD00D294E4F517D2931203ADC2931203AD0578
:0802ED0017E517C3940940ED69
:0102F50022E6
:0F035E00D294D2931203ADC2941203ADC2932274
:0C039500C294D2931203ADD2940203ADC7
:0E037B00A2029294D2931203ADC2930203AD7C
:10032000D2931203ADA2949203C2931203ADA2031F
:0103300022AA
:02017E008F12DE
:10018000E4F513E51230E704D2948002C29412031E
:10019000ADD2931203ADC2931203ADE51225E0F583
:0D01A000120513E513C3940840D912032083
:0101AD00222F
:1001AE00E4F515D2941203ADE4F514E51525E0F54A
:1001BE0015D2931203AD309403431501C29312036B
:0C01CE00AD0514E514C3940840E1AF1522
:0101DA002202
:10030E008F1812035E7F4612017EAF1812017E0215
:02031E00039545
:100145007FB47E001202AA12035E7F4712017EE48D
:10015500F5191201AE74002519F8A607E519B401C1
:1001650004D2028002C20212037B0519E519C39469
:090175000240DF1203950203AD04
:10028F001202DD7F0112030E7F0A7E001202AA7F87
:0B029F001012030E7FB47E000202AAC2
:030000000203A157
:0C03A100787FE4F6D8FD7581200200038F
:00000001FF
