:10093B003C4242424242423C081828080808083E02
:08094B003C4202040810207E6A
:0A0A4A000808000000000000000092
:100998001209067F017E001209837F017E00120979
:0409A8008302086E50
:10057C00E4F527F528F529F52AF52B74FFF52CF56C
:10058C002DE4F52EF52FF530F5311209981207965A
:10059C00E509F521E508F522E50BFEE50AFFD3E5B3
:1005AC002294FFE521648094FF40080522E5227027
:1005BC00020521D3EF94FFEE648094FF40050FBF3A
:1005CC0000010E85252C85262DAD07AC06EC1202FC
:1005DC0006C004C005C006C007AC21AD22EC120257
:1005EC00068F398E388D378C36D007D006D005D093
:1005FC00041207237BA37A4C796578421200FBE442
:10060C00FBFA7934784312000A12023F8E258F26AA
:10061C00E5264525701D752B01E52BC39409400378
:10062C00020599E52B90093A93FDAF2B120953055E
:10063C002B80E6C3E526952DFFE525952CFE120AA9
:10064C003EC3EF940AEE64809480501D752B01E537
:10065C002BC394094003020599E52B90094293FDA5
:10066C00AF2B120953052B80E6752B01E52B900956
:10067C004A93FDAF2B120953052BE52BC39409406C
:0B068C00EB7FE87E0312098302059952
:0E09D000E4FFFE0FBF00010EEF64704E70F5E5
:0109DE0022F6
:0208E400AD075E
:1008E6007C08C2A21209D0ED30E704D2A08002C271
:0F08F600A01209D0ED25E0FDD2A21209D0DCE35B
:0109050022CF
:10095300AB05AD07C2A11209D0AF051208E4AF037E
:080963001208E4D2A10209D040
:10086E00E4FD7F0C120953E4FD7F091209537D0745
:10087E007F0B1209537D017F0A1209537D017F0CF4
:0A088E00120953E4FD7F0F02095325
:10098300EF1FAC0670011E4C600A7D027CC7DCFEC3
:04099300DDFC80EC1B
:01099700223D
:040A55007F02DFFE3F
:010A5900227A
:0F09DF00D291D290120A55C291120A55C290229B
:0C0A2600C291D290120A55D291020A55DA
:0E09FD00A2009291D290120A55C290020A55A1
:0D0A1900D290120A55A291C290120A5522E5
:0208C1008F3472
:1008C300E4F535E53425E0F5349291D290120A55DA
:1008D300C290120A550535E535C3940840E5020A6E
:0108E30019FB
:10089800E4F534D291F533E53425E0F534D29012FD
:1008A8000A55A291E4334234C290120A550533E541
:0808B80033C3940840E1AF34A2
:0108C0002215
:100922008F328D331209DF7F1A1208C1AF321208DB
:09093200C1AF331208C1020A260C
:100796001209DF7F1A1208C1E4FF1208C11209DF2D
:1007A6007F1B1208C1E4F53212089874082532F846
:1007B600A607E532B40504D2008002C2001209FD84
:1007C6000532E532C3940640DF120A267F057E0015
:0307D60002098392
:100906007D0D7F091209227D017F0B1209227D4090
:0C0916007F201209227D017F21020922AE
:0F09EE00D294D293120A55C294120A55C2932280
:0C0A3200C294D293120A55D294020A55C5
:0E0A0B00A2029294D293120A55C293020A5587
:1009AC00D294120A55D293120A55A294C293120AE7
:0209BC005522C2
:020812008F1045
:10081400E4F511E51030E704D2948002C294120A80
:1008240055D293120A55C293120A55E51025E0F5E4
:0D083400100511E511C3940840D90209AC6C
:10084100E4F513D294120A55E4F512E51325E0F507
:1008510013D293120A55309403431301C293120A1F
:0C086100550512E512C3940840E1AF13E6
:01086D002268
:1009BE008F141209EE7F46120812AF14120812029B
:0209CE000A32EB
:1007D9007F787E001209831209EE7F47120812E41E
:1007E900F51512084174002515F8A607E515B40199
:1007F90004D2028002C202120A0B0515E515C39440
:090809000240DF120A32020A5516
:10096B007F011209BE7F0A7E001209837F101209D4
:08097B00BE7F787E00020983B3
:100003000202ABE86480F8E933E83360110460F07E
:10001300ED33EC337009E8FCE9FDEAFEEBFF220463
:1000230060DED3EB9FEA9EE99DE8C2E78CF0C2F75E
:1000330095F0400CE8CCF8E9CDF9EACEFAEBCFFB2A
:1000430012027685D0F05804700320D5B3E804700B
:10005300075002B2D50202B592D5EC0460F7E4CCA6
:10006300C0E0C398F8603B94186008400DD0E0FBF3
:1000730002028DE4FBFAC9FC8028E830E406E4C9F7
:10008300FBE4CAFCE830E305E4C9CACBFCE8540747
:100093006010F8C3E913F9EA13FAEB13FBEC13FC52
:1000A300D8F130F52FC3E49CFCEF9BFFEE9AFEEDF5
:1000B30099FDD0E0FBEF4E4D4C701222DB030202A0
:1000C300B2EC2CFCEF33FFEE33FEED33FDED30E706
:1000D300EB02028DEF2BFFEE3AFEED39FDD0E0FB94
:1000E30050130BBB00030202B5ED13FDEE13FEEF3D
:0800F30013FFEC13FC02028D67
:1000FB00EC4D6011E8497017ED33EC3304600DE4FF
:10010B00FCFFFEFD22E933E8330470F80202AB1268
:10011B00027658046009E4CC248150062850090269
:10012B0002B52840030202B2C0E0EB4A7044B9802A
:10013B0006D0E0FB0202A1EF4E701CBD8008EBFF66
:10014B00EAFEE9FD80EBE98DF0A4FEE5F00201E4A7
:10015B00E9CDF9EAFEEBFFEF89F0A4FCE5F0CE89DF
:10016B00F0A42EFFE435F0CD89F0A42DFEE435F09C
:10017B008067EF4E7005BD80D780C3EF8BF0A4ACCA
:10018B00F0EE8BF0A42CFCE435F0F8EF8AF0A42C05
:10019B00E5F038FCE433CB8DF0A42CFCE5F03BF818
:1001AB00EE8AF0A42CFCE5F038F8E433CF89F0A408
:1001BB002CFCE5F038CF3400CE89F0A42FFFE5F00E
:1001CB003EFEE433C98DF0A42EFEE5F039CD8AF066
:1001DB00A42FFFE5F03EFEE43DFD33D0E0FB5007DE
:1001EB000BBB000F0202B5EC2CFCEF33FFEE33FE22
:0601FB00ED33FD02028D50
:1002010075F020800E75F010800575F0087D007E78
:10021100007F003392D530D503120426EC33401011
:10022100EF33FFEE33FEED33FDEC33FCD5F0ED2281
:0E023100E5F0247EA2D513CC92E7CDCEFF22BD
:10023F00EDD2E7CD33EC3392D524814006E4FFFEB7
:10024F00FDFC22FCE4CFCECDCC24E0501174FF8016
:10025F00EDC3CC13CCCD13CDCE13CECF13CF0470B3
:07026F00F030D5DE02042689
:100723008F358E348D338C32AB39AA38A937A8363E
:100733001202C31204748F358E348D338C32E53636
:1007430030E747ECC0E0EDC0E0EEC0E0EFC0E0E42E
:10075300FFFEFDFCAB35AA34A933A8321203607B3C
:10076300DB600250087A0F7949784080067A0F7966
:100773004978C0D0E0FFD0E0FED0E0FDD0E0FC122D
:10078300000A8F358E348D338C32AF35AE34AD33B2
:03079300AC322263
:10027600E9D2E7C933E833F892D5EDD2E7CD33ECCE
:0702860033FC5002B2D52247
:10028D00EC30E7100FBF000C0EBE00080DBD0004D2
:10029D000BEB6014A2D5EB13FCED92E7FD2274FF7E
:1002AD00FCFDFEFF22E480F8A2D574FF13FC7D80D7
:0302BD00E480EFEB
:1002C0000202B5EC5D046005E8590470030202AB5C
:1002D000120276580460F6EC4860F2EC7004FDFE01
:1002E000FF22C860DB2481C85009C3986002500611
:1002F0000202B29850CAF582E9294B4A7005AB82D6
:100300000202A175F0007C1A7880C3EF9BEE9AED93
:1003100099400DC3EF9BFFEE9AFEED99FDE842F088
:10032000DC23ACF0D0E0FFD0E0FED0E0FDAB8220DB
:10033000E7101BEB60BAEC2CFCEF33FFEE33FEED65
:1003400033FD02028DE803F830E705C0F075F000D8
:10035000EF2FFFEE33FEED33FD40B830E7C280AA49
:1003600074F8CC6480CCC86480C8F58204604FC344
:10037000EB9FF5F0EA9E42F0E99D42F0E89C45F0E3
:10038000603C501DE5825FFFE582D313CB5BCBF46D
:100390002B5582FB50280ABA002409B90020088096
:1003A0001DE5825BFBE582D313CF5FCFF4C3132F30
:1003B0005582FF50090EBE00050DBD00010CC3EBB8
:1003C0009FF5F0EA9E42F0E99D42F0E89C45F0601E
:0903D00007CC4820E701B3EC2240
:10045400BE1249253E4CCCCDBEAAAAAB3F800000BB
:100464003E7ADBB03EED63383F24BC7D3F490FDB71
:10047400ED33ECC2E7CC339200B4FF13ED547F604C
:10048400030202AB7FDB7E0F7DC97C3F02056FC296
:1004940001C3947F401E7007EDD2E794904015EF9E
:1004A400FBEEFAEDF9ECF87F007E007D807C3F12D4
:1004B40002C3D201ED33EC33248430E705E4C0E019
:1004C400806D04FAEDD2E754F0C333DAFD540734F7
:1004D400002323C0E0CCC0E0F8EDC0E0F9EEC0E0BA
:1004E400FAEFC0E0FBE412020BEC24FEFC8C3A8D24
:1004F4003B8E3C8F3D1200FB7B007A007980783F75
:1005040012000AECC53AB2E7FCEDC53BFDEEC53C72
:10051400FEEFC53DFFD0E0FBD0E0FAD0E0F9D0E03B
:10052400F812000AA83AA93BAA3CAB3D1202C38CBC
:100534003A8D3B8E3C8F3D90045474031203D9A82A
:100544003AA93BAA3CAB3D1200FBD0E0600F24600B
:10055400F582E43404F58312044412000A30010BDA
:100564007BDB7A0F79C978BF12000AED33EC336074
:0805740006ECA20092E7FC2254
:1003D900C0E0EFFBEEFAEDF9ECF81200FBD0E0F526
:1003E900F0EFFBEEFAEDF9ECF8120434A3A3A3A3A2
:1003F900E8C0E0E9C0E0EAC0E0EBC0E0C0F012000C
:10040900FB120444A3A3A3A312000AD0F0D0E0FB7B
:0D041900D0E0FAD0E0F9D0E0F8D5F0D42220
:030000000206975E
:0C069700787FE4F6D8FD75813D0206DE98
:0E042600C3E49FFFE49EFEE49DFDE49CFC22E7
:10043400E493FC740193FD740293FE740393FF220E
:10044400E493F8740193F9740293FA740393FB220E
:0C0A3E00EE30E707C3E49FFFE49EFE22B9
:1006A30002057CE493A3F8E493A34003F68001F2EC
:1006B30008DFF48029E493A3F85407240CC8C33358
:1006C300C4540F4420C8834004F456800146F6DF27
:1006D300E4800B0102040810204080900A4AE47E63
:1006E300019360BCA3FF543F30E509541FFEE4931C
:1006F300A360010ECF54C025E060A840B8E493A3E3
:10070300FAE493A3F8E493A3C8C582C8CAC583CA0D
:10071300F0A3C8C582C8CAC583CADFE9DEE780BEC5
:010A540000A1
:00000001FF
